:020000041000EA
:1000000000B5324B212058609868022188439860DF
:10001000D860186158612E4B002199600221596106
:100020000121F02299502B49196001219960352056
:1000300000F044F80222904214D00621196600F024
:1000400034F8196E01211966002018661A6600F04E
:100050002CF8196E196E196E052000F02FF8012189
:100060000842F9D1002199601B49196000215960AB
:100070001A491B48016001219960EB211966A021F2
:10008000196600F012F800219960164914480160C1
:100090000121996001BC002800D000471248134993
:1000A000086003C880F30888084703B5996A0420EC
:1000B0000142FBD001200142F8D103BD02B5186610
:1000C0001866FFF7F2FF186E186E02BD00000240BE
:1000D000000000180000070000035F00212200005C
:1000E000F4000018222000A00001001008ED00E03C
:1000F00000000000000000000000000074B24E7A12
:1001000000200420F7010010C3010010C5010010F9
:10011000C1010010C1010010C1010010C101001097
:10012000C1010010C1010010C1010010C701001081
:10013000C1010010C1010010C9010010CB01001065
:10014000CD010010CD010010CD010010CD01001037
:10015000CD010010CD010010CD010010CD01001027
:10016000CD010010CD010010CD010010CD01001017
:10017000CD010010CD010010CD010010CD01001007
:10018000CD010010CD010010CD010010CD010010F7
:10019000CD010010CD010010CD010010CD010010E7
:1001A000CD010010CD010010CD010010CD010010D7
:1001B000CD010010CD010010CD010010CD010010C7
:1001C00000BE00BE00BE00BE00BE00BEEFF3058054
:1001D000103800BEF2EB8871143E0410383E041053
:1001E0003402001090A31AE700201F49086006C8D7
:1001F00081F3088810471D48006800282FD10DA4FE
:100200000ECC002902D000F012F8F9E71849194A7B
:10021000002000E001C19142FCD1174988471749ED
:1002200088471749884700BEFDE701C901C29A42C5
:10023000FBD37047383E0410C0000020E8150020B2
:1002400060530410000004200000042060530410D8
:10025000001004200010042000000000704709482E
:1002600003F082FD0047000008ED00E0000000D030
:10027000E8150020642E00208524001009030010DA
:10028000AD2500105756000006005250ABB3605326
:1002900090C0001006005250861C0302A0C000103F
:1002A000060052505422A29DB8C0001005005250C2
:1002B000DE65F46860530410F8B5C0460648074987
:1002C000091A8B10C90FC91810B5491003D0044B77
:1002D000002B00D0984710BDE8150020E81500203D
:1002E00000000000054B10B5002B03D00449054861
:1002F00000E000BFFFF7E2FF10BDC04600000000B5
:10030000E02C0020F0BE0010F0B5CE46474680B588
:10031000B3B005F01BF8002800D194E007F0C4FA50
:10032000002800D085E04A4C4A4D05212B000422CC
:10033000200000F0ADF80100A84203D02A00464892
:1003400004F0F8FF10AB98467723424601210020C5
:100350001371109407F098FA404801F0CDFA00218B
:10036000080007F091FA3E4804F0F2FE200012A9BE
:1003700000F0BCF8C6B2002E0BD00024394F12ADED
:10038000013429783800E4B204F0D4FF0135A642E4
:10039000F6D10A2004F090FE43461098596800F008
:1003A00057FA314B804699460121002007F06CFA3C
:1003B00040460EAA0CA900F06DFA0C9B0D9C18008B
:1003C00021000022294B0890099103F06CFF284A74
:1003D000284B06000F0004F0D5FB0E9C0F9D020079
:1003E0000B000020244903F054FF0022234B03F0AC
:1003F00074FF234A0A900B91224B2000290003F03E
:1004000048FF04940595089B099C0690079100936A
:1004100001940A9A0B9B48460296039704F08AFFC0
:100420000021002007F030FAFA20800001F064FA81
:10043000BAE7154804F08CFE0120404233B0C0BC3E
:10044000B946B046F0BD114804F082FEF4E7C0465C
:1004500060100020801A060018BF001088130000EA
:100460003CBF001048BF001054BF0010D0BCF84083
:10047000A444E2CC955BC83F0000F03F40A5E540B6
:10048000666666666612714004BF0010F0BE00101A
:1004900070B50D001900140007F018F906000321CB
:1004A000280000F037FA2000032100F033FA28007A
:1004B0000022012100F046FA20000022012100F074
:1004C00041FA300070BDC04610B584B06C4663730D
:1004D00000232273009303AA023307F01FF90230AE
:1004E000431E9841C0B204B010BDC046F0B5C64628
:1004F0000600884600240025002700B584B00F229E
:1005000001232100300000976A4407F06FF90230A0
:1005100003D042466B1C5455DDB20134E4B2802C4A
:10052000EDD1280004B080BCB846F0BD1722AA2344
:1005300070B58CB06A441370CEB2A93B3100009301
:10054000050007F0EBF8002306AC22003100009311
:100550002800163307F04AF9162004F007FD227828
:100560006378120213430380324A013B9BB29342E9
:100570005CD8A178E37809020B434380013B9BB22E
:10058000934253D82179637909020B438380013B5D
:100590009BB293424AD8A179E37909020B43C38005
:1005A000013B9BB2934241D8217A637A09020B4303
:1005B0000381013B9BB2934238D8A17AE37A0902C6
:1005C0000B434381013B9BB293422FD8217B637B3A
:1005D00009020B438381013B9BB2934226D8A17B46
:1005E000E37B09020B43C381013B9BB293421DD8BD
:1005F000217C637C09020B430382013B9BB2934243
:1006000014D8A17CE37C09020B434382013B9BB2DB
:1006100093420BD8227D637D120213438382054AE5
:10062000013B9BB2934201D80CB070BD04F0B0FC0A
:100630000020F9E7FDFF000082B0F0B54E464546C8
:10064000DE465746E0B589B0139318AB1E78794B58
:1006500004000693784B0290079300230391994678
:100660001292CDB2032E0AD9484609B0F0BCBB465F
:10067000B246A946A046F0BC08BC02B01847F42216
:1006800029002E33FFF720FF00216C4801F020F9EC
:1006900013236B449A46F62352461370F53B290008
:1006A000200000939B4607F039F84B4605AF3A000F
:1006B000290020000093023307F098F83B882900B6
:1006C0005BBA9BB29846B3013433F4222000DBB20C
:1006D000FFF7FAFE730006AAD05A002101F0F8F8DD
:1006E0005B46290052462000009307F017F84B465E
:1006F0003A00290020000093033307F077F87B7855
:100700003D781B022D04ED18BB7812ACED180823C0
:100710009B1BDD40434662899A1A23895343DF17A6
:100720007F047F0CFF181223E05E1423E15EFF13A9
:10073000C919C00203F04AFBC21911000F23083186
:10074000C81703405B1819991B110B603C4B9C4662
:10075000624417000423E15E57435143CB17DB0487
:10076000DB0C5B180C21605E3F137843C117090452
:10077000090C0918032009145B135B180233D917FD
:100780000140CB18802109028C469B10E18863440C
:100790005943CB0B9C460E21635E5F43FB175B0501
:1007A0005B0DDB190221675EDB127A43D7177F05E9
:1007B0007F0DBA18D2129B180021625E92009B181E
:1007C000B3400233DA171040C01880102D1A1D48AC
:1007D00030416843002828DB6146400003F01EFBDF
:1007E000FF23C21713401B181B125B4316495943C2
:1007F00043011B18DB001B1A9B001B1ADA009B1A13
:10080000DA171204120CD318104A091494460F2256
:100810001B145B186344D9170A40D3181B111A9A8A
:100820001B181360012399461EE7614603F0F6FA90
:100830004000D5E794114C1DBC349C63941100001A
:1008400060F0FFFF50C30000DE0B0000CF0E000081
:1008500030B583B06D4600900C20696004F086FBD3
:100860002A000300040003CA03C300986968FFF765
:100870005DFEA060002802D0200003B030BD200043
:1008800004F086FB024804F063FC0024F4E7C04651
:100890009CBF0010F0B5C64600B58AB009AB8846CB
:1008A0008168069308AB05930323040004934E88E4
:1008B0000B88CD8836041E438B882D0417001D43FA
:1008C0000E226846083104F075FB03CC32002B0081
:1008D000FFF7B2FE099803F075FD434618605960B2
:1008E000089803F06FFD074A074B03F0F6FC074A30
:1008F000074B03F0D3FC386079600AB080BCB8467F
:10090000F0BDC0469A9999999999B93F666666660D
:1009100066127140094A10B594464024830063442E
:100920001A68C00062408034144080225201134390
:100930001C60034B9C466044416010BD04C00140F4
:1009400000400140074B80009C4660440368C9009A
:1009500092000A435A400C231A4080235B01034350
:100960001A60704704C00140084B80009C466044F8
:10097000002905D0802302229B0103431A6070479F
:10098000C02302229B0103431A60F8E704C0014020
:10099000D0231B061B6830B50500584243412F2069
:1009A0005B4283430D48EC088446072028408000C2
:1009B000814020000A4D3C3063448000A400415136
:1009C0001B19002A04D0802292011343196030BD04
:1009D000C022920113431960F9E7C046304101403B
:1009E00000400140D023F0B5C6461B0698461B6860
:1009F0000C4F9B001600FA5804000D0000B5104281
:100A000009D1290014430D203200FC5000F072F986
:100A100080BCB846F0BD01F0E5FD43461B689B0075
:100A2000FA58EEE7102D002010B504000D2000F05C
:100A30005BFAD0231B061B6802499B005A58A2434D
:100A40005A5010BD102D00200123D02283401206E1
:100A500093629361094A40219446830063441A6873
:100A6000C0004A4080311140802252011343196076
:100A7000034B9C46052360444360704704C001401B
:100A800000400140024B18688007C00F7047C04605
:100A900000C00640EFF3108072B6034A1368002BC3
:100AA000FCD0BFF35F8F70472C0100D0BFF35F8F86
:100AB0000022024B1A6080F3108870472C0100D08E
:100AC00070B5EFF3108C72B60D4D2B68002BFCD077
:100AD000BFF35F8F0724CB08C618C05C01230C400E
:100AE000A3401C000440034207D118433070BFF3F9
:100AF0005F8F2C608CF3108870BD100001F05AFDE0
:100B00002C0100D0F8B54746CE46884680B5EFF3B5
:100B1000108C72B6214D2C68002CFCD0BFF35F8F77
:100B20009A422CD8D4080727055D061901241740DE
:100B3000BC402C421FD007210127894609E0D40878
:100B4000055D06194C4639001440A1400C002942AD
:100B500011D001329342F2D201204042BFF35F8FA5
:100B600000220E4B1A608CF3108800280FDBC0BCEB
:100B7000B946B046F8BD254310003570EEE7BFF327
:100B80005F8F00232B608CF3108801204042434686
:100B9000002BECD0089801F00DFDC0462C0100D0D0
:100BA00030B5EFF3108C72B60A4C2368002BFCD0E2
:100BB000BFF35F8F072301220B409A40CD08435DAE
:100BC00093434355BFF35F8F002323608CF310885A
:100BD00030BDC0462C0100D00021044B044ABFF3B5
:100BE0005F8F02C39342FAD17047C046000100D024
:100BF000800100D0044A1078431CDBB2172B00D9C7
:100C0000102313707047C046800F002010B5064BAC
:100C1000064C82B00100009318221F232000FFF72A
:100C200071FF02B010BDC046BCBF00105C1F0020A9
:100C300001238340002904D0034A1360034A136050
:100C40007047034A1360FBE780E200E000E100E048
:100C500080E100E001238340014A13607047C046F1
:100C600000E200E0084B10309B688000C358002B66
:100C700007D0064A00209B1A2F229A424041C0B258
:100C800070470020FCE7C04600ED00E0840F002024
:100C9000024B10309B688000C058704700ED00E0A8
:100CA00070B50D00EFF3108672B60F4A1368002B73
:100CB000FCD0BFF35F8F0D4B10309B6884001B5935
:100CC0000B4A934203D09D4201D001F08BFC074BAD
:100CD0009B681D51BFF35F8FBFF35F8F0022024BF4
:100CE0001A6086F3108870BD240100D000ED00E08A
:100CF000CD010010F0B557464E46DE464546E0B5FC
:100D000085B0060000911700EFF3108B72B66A4AA7
:100D10001368002BFCD0BFF35F8F0025674B5D5736
:100D20009A46002D00DAA9E06B00654C01935B192F
:100D30009B009846A146C1444B4652469B791036CB
:100D40001370604BB6009B6899590B1B2F2B33D93E
:100D50005D4B994200D0ACE0019B42469C465B4B08
:100D60006544AD0063535A4B0232A218043B9B1AF0
:100D70001B05584A5B0D651913436B80564B0121C7
:100D8000AB80FF23AB71009BEF71AB604B460B4315
:100D900019004C4B9B689951BFF35F8FBFF35F8F76
:100DA0000022454B1A608BF3108805B0F0BCBB469F
:100DB000B246A946A046F0BD01200A008243D3797D
:100DC0008C46BB4231D84546130044491B1B5B414E
:100DD0005943090D3D4B63533D4B02356519043BA7
:100DE0005B1B1B053B4D5B0D2B43AA464D466B80A1
:100DF0000425AC465546E044131F44441B1B1B0509
:100E00005B0D1D434B46997100999D809960494641
:100E1000DF71334B01431360BBE75800C0188000FB
:100E20002018C179B9422FD902000623D356002BCE
:100E3000F3DA02932B4B61460393131D9A46042366
:100E40005B429C46E14450464B461B1A1B055B0D1A
:100E50009C46204B957198466346404603439380D9
:100E6000019B5A199200039BA418A380029B1C4A61
:100E7000A371009B2260E771A3608AE701F0B2FBD7
:100E8000002553465D574FE7908802934005131D98
:100E90009A46031561469C464046D4446346043056
:100EA0002018181AE0230005400D1B021843039078
:100EB000C5E701F097FB4FE7240100D05B2E00202F
:100EC000840F002000ED00E0CD01001000A1FFFF25
:100ED000B40F002000E0FFFF01BDFFFFAAAA000041
:100EE0000148804701BD0000F0B5DE4657464E463A
:100EF0004546E0B50C0083B0EFF3108872B65D4A4A
:100F00001368002BFCD0BFF35F8F5B4B5B499A6883
:100F1000030010339F00D5598D4239D0A5424AD0E5
:100F2000574EAA1B2F2A33D801229246824091465F
:100F30004846544A1268104001904846524A106090
:100F4000BFF35F8FEFF305829346002A35D09342BB
:100F500001D001F047FB2A0053469A43906884422F
:100F600008D175E04B005B189B00F3189868A0420D
:100F700034D01A00062151560029F3DA844253D0A6
:100F8000019B002B26D04A46404B1A603D4B1A600D
:100F9000394B9B68DD51BFF35F8FBFF35F8F00223A
:100FA000344B1A6088F3108803B0F0BCBB46B246DD
:100FB000A946A046F0BD0D00EAE72A0053469A4331
:100FC00090688442D6D1062010561300002809DA12
:100FD0000D0031E04A462C4B1A60D9E7062018561E
:100FE000002822DB42001118890074188A46A16883
:100FF0009960E179D971062161569971002925DB43
:10100000A488F11A6405241554440919E02409053B
:10101000490D24022143998013181D4A9B00117821
:10102000F31899711070ABE713005946002914D1D9
:10103000FF3191711749918015490A789A71164AC2
:101040009B1B5B415A43120D0A7099E71349E2E773
:101050000620105613000028C4DA114A1149D21A8A
:10106000083A5002400D014399800F4952080A4343
:10107000DA8085E7240100D000ED00E0CD0100100A
:10108000840F002000E100E080E100E080E200E069
:101090005B2E002001BDFFFFAAAA000001BD0000D9
:1010A000BE0F002000F0FFFF00F8FFFF032310B584
:1010B0000400074A18409446C0009C43FC33834018
:1010C0006444226881409A4313000B43236010BD9F
:1010D00000E400E070B5EFF3058101240443EFF371
:1010E000108C72B6214A1368002BFCD0BFF35F8FBF
:1010F0001F4B05001F4AED1A6D416A43120D1E4D2C
:101100008900AE6852B27658A6421CD006215956C4
:1011100091421CD012215956914222D01E2159567B
:10112000914220D02A2159560324914210D0134BCA
:1011300019781A708171BFF35F8F00220B4B1A6010
:101140008CF3108870BDAB680D4C5C50EFE7002449
:101150006100091989005B18FF219971094999807B
:10116000E5E70124F4E70224F2E7C046240100D0B9
:10117000840F0020AAAA000000ED00E05B2E0020F2
:10118000CD01001001BDFFFF054B064A1360064A62
:10119000136053609360D360136153619361704730
:1011A0008080808000E400E004E400E01F2110B5AE
:1011B000091A0248FFF7F4FC10BDC046602E00205B
:1011C00010B5084B084C82B00100009300220523A3
:1011D0002000FFF797FC002801DB1F23181A02B03C
:1011E00010BDC046D8BF0010602E002070B50400AE
:1011F0000E001500FFF7FEFC0100200000F006F8CD
:10120000A680E580BFF35F8F70BDC046024B9C4651
:1012100061448900016070474000003410B504004B
:10122000FFF7E8FC01002000FFF7F0FFFF23237128
:10123000BFF35F8F10BDC04610B50400FFF7DAFCA6
:1012400001002000FFF7E2FFFF23A380BFF35F8FC1
:1012500010BDC04610B504000120FFF7D7FC034BBA
:10126000C3189B002360BFF35F8F10BD40000034A4
:10127000034B9C46614489000160BFF35F8F704758
:101280004000003483680B4810B5844661446244D2
:101290001201090159189B185C684A6801209442A0
:1012A00001D802D00020C0B210BD1A680B689A4263
:1012B000F9D8F7E7FFFFFF0F0A4B1968EFF310802B
:1012C00072B60A68002AFCD0BFF35F8F1B68BFF3B9
:1012D0005F8F00221A6080F3108840BF0020002139
:1012E0007047C046242E0020F8B5574645464E4666
:1012F000DE46E0B598460CAB1C780DAB1B780700BA
:1013000091469A460568002C59D1AC7B002C3BD005
:10131000660029683619033E89194B78AB73002B98
:1013200000D1EB7300238B704B700B702D4BE218C8
:10133000BB6812019B184A461A6042465A600A9AD4
:101340009A600B9ADA6000238B704B700B706B7B8A
:101350009B46002B26D022006B685946A868984708
:101360005B465B005B442A68033B002812D058466A
:101370009619B070D118D35C002B00D073705B4607
:101380000C706B735C450ED0F0BCBB46B246A946F0
:10139000A046F8BDD3189C709119925D002A1CD10B
:1013A0005B460B706C734A464346387D00F0F0FB99
:1013B000051E0AD10E9B002BE6D01D70E4E76600E7
:1013C00029683619033E8919B0E75346002BF1D13D
:1013D0002100386800F0F4FDECE75A705B460B70B2
:1013E0006C73E0E7FFFFFF0FF0B5DE4657464E4651
:1013F00045460023E0B58BB00893684B8200D45873
:1014000000239B46099000F063FB02000B0060681C
:10141000EFF3108A72B6564601680029FCD0B24636
:10142000BFF35F8F21684F7B8C46002F2ED0A568BD
:101430005B49A94679180901894449460868496801
:1014400005000E00AD1A9E41002E5FDD02000B006C
:10145000099800F09DFB0023002299460023069284
:101460000793002398466368BFF35F8F5A461A605C
:101470008AF310884346002B12D10028C3D10BB049
:10148000F0BCBB46B246A946A046F0BD00230022F0
:101490009946002306920793002300209846E2E72E
:1014A000089B494618023843C047626805000E0091
:1014B000EFF3108A72B61368002BFCD0BFF35F8F76
:1014C000002E41DB2B00334302D02369002B56D181
:1014D0002368D97B002905D01A68480041185218A2
:1014E000033A57709A7B002A00D19F73DF73E2683A
:1014F000013FD35D0133D3555B4623616368BFF37E
:101500005F8F5A461A608AF310887CE7002E02D15A
:10151000002D00D09AE70021604600F0CFFC4B463A
:101520001A685B68069207934B469B6898464B4641
:10153000DB689946E368DB19013B1B7808931B02C3
:101540000343236100208EE72369002BC0D0069A55
:10155000079B8021521BB34109068B4202D3012213
:10156000104B5242002104910131039149460191EF
:101570004146200002970091FFF7B6FEBCE700F05D
:10158000A7FA2A00330012184B41802109068B422A
:10159000E8D30122034B5242E4E7C046002D00206D
:1015A000FFFFFF0FFFFFFF7F10B5144C6368002B98
:1015B00004D00A211248FFF729FE10BD2300114A6A
:1015C0001021206800F096FB032000F075FA03203C
:1015D00000F046FB03200C4900F094FAFFF70AFBE9
:1015E0000A4B9C4603232375D0231B061B686044CB
:1015F0006375074B80006060DC60DAE7CC0F002089
:10160000242E002085120010E91300104000003441
:10161000002D002000487047CC0F0020F0B5574641
:101620004E464546DE46E0B585B0019310AB1B78CB
:101630000600039300239A46984600927268EFF3DF
:10164000108B72B61368002BFCD0BFF35F8F356828
:10165000AC7B002C00D16EE067002B683F19033F84
:10166000DB195A78AA73002A00D1EA73484AA118F4
:10167000B2680901521800980199106051600E99E2
:1016800091600F99D16042469A705A701A706B7BC4
:101690009946002B00D16BE022006B684946A86890
:1016A00098474B465B004B442A68033B002856D0C2
:1016B0004846D719B870D118D35C002B00D07B7086
:1016C0004B460C706B734C4553D0F3681B19013BB0
:1016D00018787368BFF35F8F42461A608BF31088E7
:1016E0005346002B08D10002204305B0F0BCBB4696
:1016F000B246A946A046F0BD039B002B46D00E9BE8
:1017000000200F99984703000B433FD004000D1EA3
:101710001ADA009A019B121BAB41009201938022BE
:101720001206934204D301231A4C5B4200930194A6
:10173000039B9A4682E77368BFF35F8F1C608BF34D
:10174000108801204042D0E700F0C2F98022001941
:1017500069411206009001919142E9D3E3E7D31861
:101760009C70D119D25D002A00D05A704B460B7084
:101770006C73307D009A019B00F00AFA82460028C3
:10178000A3D02100306800F01BFC9EE70020ACE7EE
:10179000FFFFFF0FFFFFFF7FF8B5040000292FD0E8
:1017A0004268EFF3108572B61368002BFCD0BFF3CC
:1017B0005F8FFF222068CFB2437B0A40BB4213D029
:1017C00003685600B6189B19033B9B78002B0BD17E
:1017D0002269914216D000206368BFF35F8F002218
:1017E0001A6085F310880CE0E6680B0AB218013A1B
:1017F0001278DBB29A42EED1390000F0E1FBEBE760
:101800000020F8BD2361E6E7407D7047F0B5040095
:101810000D0006267642F717C64636196F4100B509
:1018200084B08F4214D811D000F052F932003B003E
:10183000121A8B41002B15DC002B3ED02000290012
:1018400000F050F904B080BCB846F0BD8642EBD938
:101850000026002700F03CF932003B00121A8B41B1
:10186000002BE9DD002302930193154B3200009316
:1018700014483B00FFF7D2FE0028DFDB0023984628
:10188000BC46114A114F7B6A9C4504D8B96A8E4206
:10189000D4D99C45D2D11168EFF3108072B60B6891
:1018A000002BFCD0BFF35F8F1368BFF35F8F4146FF
:1018B000196080F3108820BFE5E7002ABED0D1E789
:1018C000B9120010CC0F0020242E0020004005404B
:1018D00070B504000D0000F0FBF880230019694189
:1018E0001B06994202D3012002494042FFF78EFFB6
:1018F00070BDC046FFFFFF7F70B5060000F0E8F83E
:10190000FA2204000D00002330000021920003F0B1
:10191000DFFA8023001969411B06994202D3012096
:1019200002494042FFF772FF70BDC046FFFFFF7FD4
:10193000F0B5EFF30583CE46474680B505000C00B1
:1019400085B0002B12D02A4A0020536AA34203D349
:10195000926A0130AA4204D305B0C0BCB946B04671
:10196000F0BD1B1B5A1E9341D8B2F5E7214E0293DE
:101970000193214B0200009330000B00FFF74EFE55
:10198000031EE0DD20BF7168EFF3108772B60A68AE
:10199000002AFCD0BFF35F8FDAB29446FF22306892
:1019A0001A40417B61450FD0016889465100884645
:1019B00049469044414403398978002904D1326969
:1019C000934209D1316107E0F1681B0A8A18013A94
:1019D0001278DBB29A4207D07368BFF35F8F0022A0
:1019E0001A6087F31088AEE7614600F0E9FAF3E782
:1019F00000400540CC0F0020B9120010F0B5EFF305
:101A00000582D6464F4646461000C0B51038EFF363
:101A1000108872B6214C2368002BFCD0BFF35F8F77
:101A20000123190081401E4D1F006963AA461D4D08
:101A300029601D4D2E78AC463500C5402F402B4205
:101A400015D053465F6A194B8500EB589F4218D357
:101A50006246174B8E43EB581670BFF35F8F002220
:101A6000226088F31088002B06D0984704E0BFF36B
:101A70005F8F276088F31088E0BCBA46B146A8465D
:101A8000F0BD0C4B92009C46624413681360BFF398
:101A90005F8F0023236088F31088EDE7280100D0D2
:101AA000004005403C7005405F2E0020302E002095
:101AB0001C1E0020D03F054010B5034B010018004C
:101AC000024AFEF7FDFF10BD592E0020F4BF0010A2
:101AD000034B596A0A00986A596A8A42FAD17047D8
:101AE00000400540064A536A9942FCD807D1044B8E
:101AF00002E05A6A914202D19A6A8242F9D370474F
:101B00000040054070B504000D00EFF3108672B67A
:101B10001A4A1368002BFCD0BFF35F8F002D1BD037
:101B20002000FFF7B5F8164981420AD02000FFF7E0
:101B3000B7F801212000FFF77BF80123A340114AE9
:101B40001360114BA400E550BFF35F8F00220B4BD5
:101B50001A6086F3108870BD0121A1400A4BA200D3
:101B6000D5500A4B20001A788A4305491A70FFF7AE
:101B7000BBF900212000FFF75BF8E5E7280100D062
:101B8000FD190010386005401C1E00205F2E00204B
:101B9000F0B54F46D6464646C0B507002B4C616AA5
:101BA0000D00A66A616AA942FAD18B4208D805D015
:101BB0000120E0BCBA46B146A846F0BDB242F7D912
:101BC000EFF3108A72B6224801680029FCD0BFF3F7
:101BD0005F8F0125BD401F491C4C88460978894606
:101BE0002943C9B28C46414660460870391D8900B8
:101BF00065630A511849B8004350216A0020294200
:101C000019D0616A0800A66A616A8142FAD18B42E2
:101C100019D801D1B24216D8CC450BD00B4B1F229C
:101C20001D625D6301233A4093400C4A13604346B2
:101C30004A461A700120BFF35F8F0022044B1A60DE
:101C40008AF31088B5E70020F5E7C046004005405C
:101C5000280100D05F2E0020302E002080E200E01E
:101C6000EFF3108C72B60A490B68002BFCD0BFF35F
:101C70005F8F01238340074A0748136202789A4323
:101C80000270BFF35F8F00230B608CF310887047E6
:101C9000280100D0004005405F2E002070B50600EE
:101CA0000D00140000291DD0002A12D0736880682E
:101CB000984762006B0012195B193168033A033BC5
:101CC000002808D08A189570C818CB5C002B0BD15F
:101CD0000470280070BDCB189C7088188A5C002A9C
:101CE00005D105702000F5E753700470F1E75A70D4
:101CF0000570F7E710B583600023CCB2437301335E
:101D0000426004738373C4730068421C012C05D9BC
:101D10000133DBB2137003329C42F9D1FF230B4035
:101D20005A00D318C01800230338437010BDC046B2
:101D300070B505000C1E07D0630001681B19033B3A
:101D4000CB185A78002A01D1200070BD50008018AD
:101D50000338091800204E78487021005870280078
:101D6000FFF79CFF310004002800FFF7E1FF0600A9
:101D7000002C20D00028E7D0320021006B68A86832
:101D800098477200630092191B192968033A033BB4
:101D9000002808D08A189470C818CB5C002B00D09B
:101DA00053700670D0E7CB189E7088188A5C002AA2
:101DB00000D05A7004703400C6E7C046F0B55746EC
:101DC0004546DE464E46E0B50D006F0001687F19BE
:101DD000033F0400C85D83B00192CA19002850D0A7
:101DE00043001B18033BCB185E78B446002E1AD173
:101DF000019E002E42D0E67B002E04D073009B197A
:101E0000CB18033B5D70A37B002B00D1A573E5735A
:101E100000282FD10023537003B0F0BCBB46B2465C
:101E2000A946A046F0BD72006244033A8A18517870
:101E30008846002151708946597032000100200007
:101E4000FFF72CFF43468246002B07D05B0021683A
:101E50004344033BCB185A78002A16D142465146D8
:101E60002000FFF71BFF2168019BCA19002BC2D17C
:101E70000028CFD043001B18033BCB1800219970DA
:101E8000C8E7019B002BB6D1C4E750008018033887
:101E900009184878834648464870587041462000E3
:101EA000FFF7FCFE594680462000FFF741FF414600
:101EB00002002000FFF7F2FE8046CFE7F0B557465C
:101EC0004546DE464E46E0B583B00191457B0400B1
:101ED0006F0000687F19033FC15DC219002952D00D
:101EE0004B005B18033BC3185E78B446002E1CD130
:101EF000019E002E44D0E67B002E04D073009B1977
:101F0000C318033B5D70A37B002B00D1A573E57361
:101F1000002931D1002328005370617303B0F0BC55
:101F2000BB46B246A946A046F0BD72006244033AE1
:101F300082185078804600205070814658703200D8
:101F40002000FFF7ABFE43468246002B07D05B0024
:101F500021684344033BCB185A78002A17D14246E4
:101F600051462000FFF79AFE019B01002068C2192C
:101F7000002BC0D10029CDD04B005B18033BC31808
:101F800000209870C6E7019B002BB4D1C2E7500037
:101F900080180338091848788346484648705870B6
:101FA00041462000FFF77AFE594680462000FFF7A1
:101FB000BFFE414602002000FFF770FE8046CEE7DC
:101FC00070B5050000292CD0437B8B422ED04C00ED
:101FD00000686418033C0419A278002A21D0530039
:101FE0009B18033BC25CC6188A4202D11BE0002A40
:101FF00008D053009B18033BC3185A788A42F6D185
:1020000062785A70002301222800A3706370FFF7E2
:10201000D5FE697B02002800FFF740FE68730120AF
:1020200000E0002070BD63783370EBE701221900F7
:10203000FFF7C4FEF2E7C04610B50C2082B000F0F6
:10204000B7F9FEF71FFD002810D08B4B8B488B494A
:102050008B4A186059609860D9601861596198611D
:10206000D961186259625A6202B010BD854CA067EE
:1020700000F0F4F90122844B1A60636C012BFCD14F
:102080000322824B1A607F4A936B012BFCD10133F0
:1020900001217F4A7F480093043300F037F905237C
:1020A0007D4A009301217D4800F030F97C4B5A684D
:1020B000FF2A02D8802252005A608022734B6E4C55
:1020C00012011A602169002907D0606901F0A6FE9B
:1020D000013043001B18033BFDD2E022704B7148D6
:1020E00019680A40026002221968514001320A4010
:1020F000042102609A681142FCD080216A4A0901D9
:102100001160802252005A60684B2361684B596805
:10211000FF2900D85A60032201215B4B1A60644AF0
:1021200093681942FCD0E0231068034061480360C3
:10213000126803234A40022113405D4A03609368FA
:102140001942FCD080215C4B0901196080215B4B56
:102150004900516063615A4B5A68FF2A00D85960A0
:102160008022584B12011A60E169002907D060698A
:1021700001F054FE013043001B18033BFDD2E02365
:102180004F4A11680B4050490B6080214F4B0901A9
:1021900019608021394B49005160E3614C4B5A680A
:1021A000FF2A00D8596080224A4B12011A60216A26
:1021B000002907D0606901F031FE013043001B188F
:1021C000033BFDD2E023424A11680B4042490B60B9
:1021D0008021424B0901196080235B0053608022FB
:1021E000264BD20223623E4B5968914200D25A607C
:1021F00080223C4B12011A60616A002907D0606995
:1022000001F00CFE013043001B18033BFDD2E0231C
:10221000334A11680B4034490B608021334B09016C
:1022200019608023DB025360154B6362304B5A68A0
:10223000FF2A02D8802252005A6080222D4B1201C0
:102240001A60A169002907D0606901F0E7FD01303B
:1022500043001B18033BFDD2E023254A11680B40C5
:1022600025490B608021254B0901196080235B0003
:102270005360124BA361F7E6E8150020006CDC0206
:102280001BB70000008000403CB0004030B0004070
:10229000002F685900800240008C864700C0024031
:1022A000308000403090004030A00040001BB7005C
:1022B0003C8000403C9000403CA0004040597307E7
:1022C0005480004054B000405490004054A000405E
:1022D0006080004060B000406090004060A000401E
:1022E0006C8000406CB000406C9000406CA00040DE
:1022F0004880004048B000404890004048A000405E
:10230000014B8000C0587047E8150020F8B5040064
:1023100022481E0017000D0001F080FD010038006A
:1023200001F07CFD069B36041B031E432368002B33
:1023300022DB1B4B1B49E3185A1E9341802292015A
:1023400094465B421B0B184A1B0363441360174AF5
:1023500013601F008A689743FBD1C022231D92019E
:102360001A4321232560A06013602368002BFCDA48
:102370000823E6601360F8BD3F2322681340AB4298
:10238000D7D1A3681B051B0D8342D2D1EE22E3688F
:10239000D2021340B342CCD1EDE7C046001BB700D8
:1023A0000040FDBF00C0004000E0004000F00040E1
:1023B0008023024A9B000343D3627047008005409C
:1023C00010B580241C4BE4051C6000281AD00123A2
:1023D0001A4C18431A4BDC611A4C44401C62596277
:1023E00098628021144BC905196017481749086085
:1023F000E021C9041960002A07D18022144B12067B
:102400001A6010BD0E4BD861EBE753019B1A9B007D
:102410009A18802312015B049A4209D213000D49D5
:102420000B60074B5A608022094BD2051A60E8E71F
:10243000094B1A00F3E7C04600B00540D3C007B00F
:10244000008005402D3FF84FFCFF010008200140AF
:1024500000A00540D82C0020FFFFFF00AA23064A59
:102460001B0113602F230549D360054B1960536886
:10247000002BFCDA7047C0460040024000B0FA0072
:10248000006002402C4B2D4A70B51A602C4A2D4B2F
:102490002D491A6014008B689C43FBD12B4D2C4EA8
:1024A000B54208D2013E761BB60808CD98472300F6
:1024B0000134B342F9D1FFF7BFFD264A214B1A6020
:1024C000214A9368DB43DB01DD09002BF9D140226F
:1024D000214B224C224E9A675A671A67DA66B44239
:1024E00008D223682000002B20D00834FEF7A4FE79
:1024F000B442F6D31B4C1C4EC022B168200002F03F
:1025000059FDB460FEF768FBFEF73EFEFFF74CF89E
:10251000164C174EB44208D2013E361BB60808CC02
:1025200098472B0001359E42F9D170BD0834FEF763
:1025300075FEB442D5D3DDE700E00040BFCDFBFE21
:10254000FE7F3C0000F0004000C00040D01500209D
:10255000E0150020FFFFFF0100F00140C81500203A
:10256000D01500200000002000ED00E0E015002064
:10257000E815002000BEFDE7094A030010680028A6
:1025800005D00849C3188B4207D813607047064826
:102590000449C31810608B42F7D901204042F5E787
:1025A000D028002000000420642E002010B5FFF782
:1025B000E1FFC0460FB400B5084883B002F0C8FD83
:1025C000049B002B07D005A91800019101F0A6FB80
:1025D000034802F0BDFD0120FFF7CCFF18C000103A
:1025E00098BF001010B50148FFF7E4FF28C00010A5
:1025F0007047C046F8B55746DE464E464546E0B5FC
:1026000099460A9B07009A460D9B884693460B9C69
:102610009B073BD10C9B9C423DD21E1B0B9415008B
:102620000C005E442A004B46013521002020B847AB
:10263000B542F7D1A0460B9C002C20D04546361958
:102640005346321B013C185D29004B46B847002C0D
:10265000F6D12B00350098460D9B9B070FD55B46A6
:10266000EC1A0C9BA3420AD9464698462A004B46D0
:10267000310020200134B84701354445F6D3280005
:10268000F0BCBB46B246A946A046F8BD16001500F0
:10269000002CD3D1E0E71600002CCFD11500EEE7D7
:1026A000F0B54F464646D646C0B584B098460EAB08
:1026B0001B7894469946129B0D9C109F119E9A0779
:1026C00025D4002E65D1BC4221D201221A40924667
:1026D000202C00D1E9E00C9A551E302202E0202C7B
:1026E00000D17BE001342A55A742F8D85246002A8F
:1026F0000DD0B4420BD20C9A551E3022202C02D1A0
:1027000071E0202C2DD001342A55B442F9D1DA06DB
:102710003CD55A052ED4002C28D10F9A102A00D16E
:10272000B6E0022A00D1BCE030220C9C22700124C9
:102730004A46002A65D15A0700D499E02B220C9D05
:102740002A55013403930C9B62460093029643463C
:102750000194FFF74FFF04B0E0BCBA46B146A8466B
:10276000F0BD2024DA06EDD55A0503D4A74266D081
:10277000B44264D00F9A102A71D0022A57D0202C6C
:10278000E0D02200013430250C9FBD54202CD9D03C
:10279000CEE7012215001D40AA461A4236D04A460D
:1027A000002A4AD10C321A4247D1BC42A1D2202C75
:1027B00091D1202E17D82024DA06C3D55A051BD470
:1027C000202F01D0202ED5D11F220F9D102D6FD08C
:1027D000022DD8D162250C9FBD54D0E75246002A65
:1027E00079D0202EBDD92024DA06ABD55A0503D4E2
:1027F000202FE9D0202EE7D00F9A102AA2D1202432
:10280000A0E72D220C9D2A5501349BE7BC4200D342
:102810007DE7202C00D05EE7DA06F0D55A05EED42D
:10282000202F62D0202EEAD134001F22CDE7202CA9
:1028300000D187E722000134CCE7013EB5E7621EF4
:10284000012CC2D10F9A102A00D06AE79A063BD514
:1028500058220C9C2270283A6270022468E79A067B
:102860000ED4202CCBD078220C9D2A55013486E73B
:102870001A0700D466E720220C9D2A55013461E72F
:10288000202CBCD058250C9A12191570013476E70B
:102890009A0608D558220C9C2270302262700224BD
:1028A00046E76032F7E77822F5E7002A83D1B3E7FD
:1028B000A21E013C9D0603D478250C9FBD5460E701
:1028C00058250C9FBD545CE778220C9C2270483A36
:1028D000627002242CE7DA0600D433E75A058BD461
:1028E000202F00D044E71F226FE73C001F226CE737
:1028F00010B5002800D110BD02F0DEFBFBE7C0469A
:102900000B0010B5002802D049681B68984710BD1D
:10291000F0B557464E464546DE46E0B599B082468C
:10292000894690460893229A239B1000190001F0D3
:1029300036FD002800D0CDE0229823990122D94B02
:10294000524201F027FD002800D0C3E022982399CD
:102950000122D54B524201F007FD002800D0B9E01A
:10296000229823990022002301F0FEFC002800D0C9
:10297000F1E1229E239F8023269ADB001A400D92CC
:10298000269A1A4201D1062324938023269A1B01FA
:102990001A403B0093460996334300D0B3E0002A27
:1029A00000D0C2E1002300240A930B9400230425E5
:1029B0000993259B0024AB4200D95C1B0223269A75
:1029C0001A400C92269A134203D06B426B415B4231
:1029D0001C40099B002B07D00A9A0B9B3000390042
:1029E00001F061FC06000F002298239900220023C9
:1029F00001F0BAFC002803D0802109067B181F00D3
:102A0000269AAA4B009601971340089E0493249B94
:102A100003940293424633004946504600F0AAF917
:102A20000400002D67D02020269A4946024013005A
:102A30005A4253415B42621C18400A923300220002
:102A40004530D047099A6F1ED317D4185C40D30F76
:102A50009B46002501E0202D13D008AA94461F2391
:102A6000200063440A2101355E1901F0D7F93031A5
:102A7000317020000A2101F0D1F926000400092E4E
:102A8000E9D805230693002304930A3303935B4696
:102A9000089E029310AB0A9A0093494633005046B1
:102AA00005970195FFF7FCFD0C9A0400002A22D03F
:102AB0004246851A259AAA421DD9B04657461600A5
:102AC00022004346494620200135B8470134AE4232
:102AD000F6D810E0269B42460493259B4946039373
:102AE000249B50460293229B239C00930194089BB5
:102AF00000F040F90400200019B0F0BCBB46B2461B
:102B0000A946A046F0BD6A4B78009C46400D604443
:102B100001F058FC674A684B01F0DFFB674A684BDD
:102B200001F0BCFB674A3B031B0B1A4304000D007A
:102B300009981100644B002201F0ABFB634A644B1F
:102B400001F0CBFB02000B002000290001F0A6FBE6
:102B500001F050FC099001F035FC5E4A5E4B040028
:102B60000D0001F0BAFB00225C4B01F097FB01F075
:102B700041FC5B4A5B4B29000C90200001F0ADFB4F
:102B800004000C980D0001F01DFC574A574B01F052
:102B9000A4FB02000B002000290001F07AFB0400D6
:102BA0000D0002000B000A940B9501F096FB040047
:102BB0000D000A980B9902000B0001F06FFB002238
:102BC0000E900F914A4B2000290001F06CFB00226F
:102BD000484B01F063FB02000B002000290001F0CC
:102BE00062FB0022444B01F059FB02000B00200065
:102BF000290001F058FB0A9A0B9B0D00802104006C
:102C0000C905002001F045FB02000B00200029004F
:102C100001F044FB02000B000E980F9901F043FBFA
:102C20000022284B01F03AFB344B0C9C9C46644438
:102C30002305002201F051FB04000D0002000B00EF
:102C4000300039000A940B9501F08EFB00285DD10D
:102C500023002A00C625099963318D42AD415946AA
:102C60006D420435002900D1A3E6134363D0300040
:102C70003900234A234B01F085FB002807D00022AE
:102C800030003900204B01F06FFB002853D1249B0A
:102C9000002B00D18DE60D9B5A1E9341249AD31A26
:102CA000249386E6FFFFEF7FFFFFEFFFFFF7FFFFB5
:102CB00001FCFFFFFB799F501344D33FB3C8608BE7
:102CC000288AC63F0000F03F0000F83F61436F6371
:102CD000A787D23F71A379094F930A400000E03FD4
:102CE0001655B5BBB16B0240EF39FAFE422EE63FF6
:102CF00000002C400000244000001840FF030000AA
:102D00002D431CEBE2361A3F80842E41099B0022A2
:102D1000013B09932000164B290001F0C4FA0A0078
:102D2000010003000A910B9294E7002300240A9308
:102D30000B9400230993249A099B9A4214DDD31A19
:102D4000013B24938023269ADB001A4300230025AD
:102D5000269209932DE6802212069446229B1E009D
:102D6000239B63441F0006E600232493EAE7C04642
:102D700000002440F0B54546DE464E465746E0B5D5
:102D800095B08B46904699461E9A1F9B0A90190053
:102D90001000209D01F003FB002800D0B0E11E9838
:102DA0001F990122C74B524201F0DEFA002800D0E1
:102DB00037E11E981F990122C34B524201F0EAFAF3
:102DC000002800D0A7E01E981F990022BF4B01F0F9
:102DD000E1FA002800D088E01E981F990022BC4B21
:102DE00001F0C2FA002800D07FE01E981F9900224F
:102DF000002301F0B9FA002800D0FAE000230B9379
:102E00008023229C229ADB001C401A4200D102E15E
:102E1000092D00D87CE106A98C462C00172200233E
:102E20003021093C62440133D154EF1A202B00D1E8
:102E300032E1A342F7D10022A44B069207931E98D9
:102E40001F9901F0D7FA050001F0BCFA02000B004F
:102E50001E981F9901F01DFA069A079B01F03DFA92
:102E60000890099101F0EAFA060001F0A7FA0200C1
:102E70000B000898099901F00CFA0022954B089074
:102E8000099101F087FA002800D1D2E00136300024
:102E900001F094FA069A079B01F074FA002801D019
:102EA00000260135AA46002F00D098E0280001F046
:102EB00089FA02000B001E981F9901F0EAF9854B70
:102EC000002206000F0001F04FFA0CAB9A460028D2
:102ED00045D10022300039007E4B01F05BFA00281A
:102EE0003DD1EB073BD5013539E0229B42460493A7
:102EF000219B594603930A981E9B1F9C02950093A1
:102F000001944B46FFF704FD15B0F0BCBB46B2463A
:102F1000A946A046F0BD229B5B0767D403226E4BF7
:102F200022990192039121990291009342464B46C6
:102F300059460A98FFF75EFBE6E706AA9446172370
:102F4000280063440A2101341E1900F03FFF30318C
:102F5000280031700A2100F039FF051E76D0202CA0
:102F6000EBD10323229A1340012B1DD1219B002B6F
:102F70001AD00B9B002B00D0BBE0229A0C331342DB
:102F800000D0B6E0219BA34200D887E006AB9C4668
:102F900017223023624404E02199013413558C42F6
:102FA00059D0202CF8D12024229B01940393219BFB
:102FB00002935346B9E706AA944617230A216344AD
:102FC000300001341D1900F029FF30312970300024
:102FD0000A21013F00F022FF092E46D90600202CCD
:102FE000E9D155460CAB20249A46B8E704223B4B66
:102FF00096E71E9A1F9B0020002101F04AF9012349
:103000000B938023229C229ADB001E901F911C4070
:103010001A4200D0FCE60022314B062706920793A5
:103020000DE7229B0393219B0293042301932D4BD5
:103030007BE7002208980999264B01F095F90028B2
:1030400000D02FE7002E4FD101362BE70323229A21
:103050001340012B66D0202CA6D00B9B002B1FD039
:103060002D235246135501349EE75546202CB9D0E6
:1030700030233A19002F08D0172006A90134091867
:103080000B55202CAED09442F6D10CAB9A462E2391
:1030900052461355013462E72024CCE6202C83D01D
:1030A000229B5B0708D4229B1B0700D47CE72023CC
:1030B00052461355013477E72B23524613550134FA
:1030C00072E7C046FFFFEFFFFFFFEF7F65CDCD4109
:1030D00065CDCDC10000E03F3CC0001034C0001001
:1030E00080842E4144C00010F30700D4DAE6013694
:1030F000D8E6219B013B2193A34200D946E7AAE7EA
:10310000229B0393219B029303230193074B0CE71C
:10311000074BEA009B185C681B682F000693079416
:1031200000248CE6219B002B95D022E740C00010A4
:10313000A8C60010F0B55746DE464E464546E0B5F7
:10314000A5B01F002E9B91460D93CA4ACA4B8246DA
:103150008B461A60002900D129E20023387898466E
:10316000002800D12BE2C54B44460C93C44B554676
:103170004E460E930AE0631C9846220033005946DF
:10318000A84744463878002800D187E00137252831
:10319000F1D108239A46043B9946023B9846013BED
:1031A00000229C460B943878791C0300203BDBB24C
:1031B000102B03D80C9C9B00E3589F460300303B28
:1031C0000B9C0B92092B3AD9002398462A2800D150
:1031D000DDE000239A462E284BD00300683BDBB28B
:1031E000122B1ED80E9A9B00D3589F4663460F00A1
:1031F0001A43D8E743460F001A43D4E74B460F0063
:103200001A43D0E710230F001A43CCE753460F00B0
:103210001A43C8E780235B000B9A78781A430B9215
:1032200001310F0067284FD82428A4D90300253B7B
:10323000DBB2422B9FD893499B00CB589F4600237B
:1032400098460B9B47469C4600E00131BB00DB19CA
:103250005B001F180878303F0300303B092BF4D97E
:1032600063460B930023B8469A460F0001312E287F
:10327000B3D180200B9AC00002430B9230225242FD
:10328000944678780B0084446246092A00D8AAE163
:103290002A2800D1B9E10F0001319EE7A046AA46D5
:1032A000B146C84503D301235B424B4498464B4685
:1032B000424659460020D047200025B0F0BCBB460E
:1032C000B246A946A046F0BD01006939C9B20F292E
:1032D00000D950E701238B409C466B4B99466346CF
:1032E0004A4613400F9362464B461A4200D068E1AB
:1032F0000A2956D0072900D03DE70D9B02CB9846FE
:10330000002900D092E10B9B10211A008A43100083
:1033100011310843814680201A00C000024011008C
:1033200003421CD114AB9C461F220F2362440D950F
:103330009C4615000F9B0B9402E0202B0CD0110033
:1033400064460C4020003730092C00D80738013380
:10335000E8540A090F29F0D80B9C0D9D0F934B469A
:1033600008220693534605920832039200220493E2
:103370000F9B029201931CAB22000093594633002D
:103380002800FFF78DF9434604000D93FAE60D9BE4
:1033900004CB9046002A79DB78780D930F00013139
:1033A00017E70D9B02CB14930B789C4618005346ED
:1033B000002B00D134E1002815D05346013B0133E6
:1033C00099460D940B9C89444A460B00A14601E0A6
:1033D000934203D05C780133002CF9D14A465B1A42
:1033E0000D9C0B920F938023DB0099460B9A1340A0
:1033F0000D934B461A4204D00F9B534501D95346B7
:103400000F93022399460B9A13400B934B4613429A
:1034100000D1F5E16346002B00D1D6E10D9B002BD6
:1034200000D182E10B1BD14631009A463B00A144FA
:103430002E005F464D4622009B46894609E04B46DA
:103440003900541CB0475346185D002800D192E162
:1034500022009542F3D14B465A46A946BB46350059
:1034600017001E004C460B9B002B00D0ADE1149BB7
:103470000D9387E635310010D42C002008C50010CC
:103480004CC5001098C50010419000000B9A2838D8
:1034900002430B9242465242787890460F000D93B9
:1034A000013196E678786C2800D15DE180230B9A93
:1034B0005B001A430B920131B3E680239B00ABE61D
:1034C0007878682800D148E180230B9A01311A43AB
:1034D0000B92A6E6672800D1B2E0472800D11AE196
:1034E000452800D11CE10B9A0721049242460D9B0E
:1034F0000392073352468B43190002920CC92800ED
:10350000009201930D91220033005946FFF700FA13
:10351000040037E6462800D18DE00B9A072104927B
:1035200042460D9B0392073352468B431900029289
:103530000CC92800009201930D91220033005946D6
:10354000FFF718FC04001DE6631C984622003300B8
:1035500059462520A847444614E60D9B04330F9393
:10356000631C99460B9B9A0700D40AE10D9B22002D
:10357000187859463300A84743464444012B00D8E5
:103580006FE1B0462E0025004C46B9465F4622004A
:103590004346013439002020B047AC42F7D12C001B
:1035A000BB4635004F4646460F9B0D93EAE5D64B8A
:1035B00038789A4600239846002800D0D3E50024A6
:1035C0006FE66F2842D000D8FDE11023782800D1A3
:1035D0009BE00B9A9A430B920A239C460023149378
:1035E0000A330F9338E057460B9AB900C9194900BE
:1035F00001330F181878303F010030390929F4D908
:10360000BA460B921F00591CE7E50D9BB87804CB16
:103610000237D143C9170A4092460D93791CDCE565
:10362000002800D1DFE602235B42C8E621200B9A86
:103630000243914676E620230B9A1A430B926CE7DD
:1036400080230B9A1B011A430B924CE708239C46DC
:103650000023149308330F930B9880230200DB00A0
:103660001A4011000200184200D080E00C239A4357
:103670001000802302009B001A400B92184200D0D9
:10368000F1E0802302005B001A4091460D9A04325B
:103690001492184200D0C3E2430600D5D7E00306D7
:1036A00000D421E30D9B1B880993002B00D02DE152
:1036B00010339843002900D128E10023994643465E
:1036C0000593534604930F9B0690039300230293A4
:1036D0004B4601931CAB220000935946330028004F
:1036E000FEF7DEFF0400C2E6582809D0622800D0A9
:1036F000E3E202239C460023149302330F93ABE7CB
:1037000020230B9A1A430B92103B9C4600231493E0
:1037100010330F93A0E780230B9A1B011A430B92DF
:1037200020230B9A1A430B92DDE60B1B9A460F9B44
:1037300099463B0037005E469B4622003B00310025
:10374000A84753460134185D0028F6D14B460F9325
:103750005B46B3463E001F0085E6C0230B9AB8784F
:103760001A430B92F91C5CE5C0239B00F6E70D237E
:103770009A4310007DE75B463500BB464E461F006E
:1037800071E64346012B66D9631E434432002E0086
:103790001D003B00A2465F4691469B4622004B46D9
:1037A000013439002020B047AC42F7D15B463500E8
:1037B000BB464E46A14654461F000D9B4A4618780C
:1037C000594633004444A847EEE60F9BA14698456E
:1037D00000D84CE64444E41AB0462E0025004C467E
:1037E000B9465F4622004346013439002020B047E5
:1037F000AC42F7D12C00BB4635004F46464636E674
:103800000F98804500D873E24346E218131A32003D
:103810002E001D003B0091465F469B460F91220003
:103820004B46013439002020B047AC42F7D15B460B
:10383000BB461F0043460F9901330F930B783500A9
:103840009C464E466046002800D0E7E50FE60D9BFB
:103850001B78099329E70D9B2200187859463300FD
:10386000A8474C46A0E60D9AFA3BFF3B07329A4325
:103870000133994691444B460D9313685268159253
:103880001A4306D11032904300220992002900D039
:1038900083E06122810600D54122D2B20A9214AAA5
:1038A00091460A9A00210A3A0B92424617925246D2
:1038B00018925A46B24609911E001F31149B494482
:1038C000BB4616941A950024674698468946159D6E
:1038D00019901B920AE03032D2B24B4601341A558D
:1038E000A8454CD0202C4CD006000D003A000023F7
:1038F0003000290000F0D0FAD2B2092AEBD90B9B94
:103900009C466244D2B2E8E7F125001061238206AA
:1039100000D54123DBB20A3B0B93434614A91F2277
:103920008C46159353466244B2460D9417974C4605
:103930008046A9461700099D0F9E169308E0303374
:10394000DBB201343B55B5420ED3202C0CD0050020
:103950003100280000F062FACBB20929EFD90B9AA6
:1039600094466344DBB2ECE7159B40469846169BB1
:103970004D465646A1469A460D9C179F9FE6B74274
:10398000B0D9179B56469846189B5F469A461B9B94
:1039900009949B46169C19981A9D434605935346D5
:1039A00004930F9B0690039300230293099B0193BA
:1039B0001CAB22000093594633002800FEF770FE2E
:1039C0000400FFF7DFFB10230B9A9A430F9269283C
:1039D00000D091E10B9980230A00DB001A4010000F
:1039E0000A00194203D0112118008A430F920F9A3E
:1039F000802311009B0019408C461A425BD1802322
:103A000011005B00194089460D9904310B911A424F
:103A100000D0B2E013005B0600D4EDE00D9B1B78F4
:103A20001A00D90F0D91002B00D1A3E0100014AAA9
:103A3000944642461F23159252466344A846BA460E
:103A40004D461494B14604001F00169201E0202D4B
:103A50000FD020000A2100F0E1F901357E19303144
:103A6000317020000A2100F0D9F926000400092E47
:103A7000EDD8159B4E46A94645469846169B574697
:103A80009A46149C0F9B0693434605935346049312
:103A90000A2303930D9B02934B4601931CAB220018
:103AA0000093594633002800FEF7FAFD0B9B0400F3
:103AB0000D93FFF767FB07220D9B073393430132FA
:103AC00094469C4462460D920CCBD90F0B91110089
:103AD000194300D19BE0D9171391129151401091D5
:103AE00013995940119110981199129A139B801AA9
:103AF00099411090119114AA9446424600231592C0
:103B000052469946169232001F336344A8464E46E9
:103B1000BA4614941F00109C119D914601E0202E7E
:103B200010D0200029000A22002300F0B5F9013648
:103B300030322B00BA550D0022000400002BEED1CC
:103B4000092AECD8159B10941195454698464B468A
:103B5000169AB14657461E009246149C0F9B069338
:103B600043460593534604930A2303930B9B029306
:103B70004B461CE7002885D159E70D9B1B68DA0FDF
:103B80001100002B00D1A6E0DA179818504014AAB3
:103B900091461F2342464B44A8460D9416970400B5
:103BA0006546B1461F001491159201E0202D0FD0FB
:103BB00020000A2100F032F901357E1930313170D0
:103BC00020000A2100F02AF926000400092EEDD871
:103BD000159BAC4645469846149B4E4619000D9CD5
:103BE000169F0F9B029106934346059353460493F9
:103BF0000A230393634650E713001B066ED50D9B03
:103C000000229B5ED9175A184A4092B209E7002356
:103C100099460028A2D100220023109211936AE74E
:103C20000D9B1B689946002B03D110339843002944
:103C300038D16123820600D54123DBB20A3B0D93C4
:103C400043461693534614A91F228C4617932B0004
:103C500062444D46B246159418978046170099461F
:103C60000B9C0F9E08E03033DBB201343B55B5426C
:103C70000ED3202C0CD005003100280000F0CEF827
:103C8000CBB20929EFD90D9A94466344DBB2ECE735
:103C9000169B40469846179B56464D469A460B94AF
:103CA000189F159C43460593534604930F9B06901B
:103CB0000393002302930B9B0BE50B9980230A00CF
:103CC000DB001A4010000A00194200D08BE61023D6
:103CD0009A430F928BE6002883D158E70D9B1B680F
:103CE000D9175A184A409CE60D9B1B680993DCE4DF
:103CF000030001330F93A5E50B926DE400B585B089
:103D00000391012102900093034813004A4202A943
:103D1000FFF710FA05B000BD0129001010B5094ADF
:103D20000300146884B0002C08D0012200910648DA
:103D3000524203A9A047012004B010BD01F008FAC7
:103D40000020F9E7D42C0020F128001001480421BC
:103D5000014B184700100020893D0010014B9B6863
:103D60001847000000100020142310B50100188827
:103D700004331B88984710BD162310B5010018881E
:103D800002331B88984710BDF8B54746CE4680B52C
:103D90000F1E19D014239946043304000025012670
:103DA00098464B461888434621681B88984701C4AB
:103DB000431E9841013540420640AF42F1D13000E8
:103DC000C0BCB946B046F8BD0126F8E7124A936F69
:103DD0009B0815D29066D166002905D0FFE7FFE762
:103DE000FFE7516F106F704704B580210906C217B5
:103DF0005140002800D0C84308F01AF8002104BD43
:103E0000F0B5146E556E576F166FFFF7E3FF14662B
:103E1000556657671667F0BD000000D0114A936FD2
:103E20009B0813D210665166002905D0FFE7FFE713
:103E3000FFE7516F106F704704B5002801D00020D4
:103E4000C04307F0F5FF002104BDC046F0B5146E75
:103E5000556E576F166FFFF7E5FF14665566576787
:103E60001667F0BD000000D094464A4A926F92084F
:103E7000624601D228E0C046F0B5464E346E756EFB
:103E8000776F366F00F020F89446424A1466556604
:103E9000576716676246F0BD94463E4A926F920895
:103EA000624601D254E0C046F0B53A4E346E756EAB
:103EB000776F366F00F04CF89446364A14665566B4
:103EC000576716676246F0BD002B24DB11D000292E
:103ED0003EDA00B5C943404200D1013100F038F864
:103EE000C943404200D10131DB43524200D101338A
:103EF00000BD002AEBD1002801D1002905D0002007
:103F0000C90FC90701D1C043410800B507F080FFC0
:103F10000022002300BD00B500290ADBDB4352422A
:103F200000D1013300F014F8C943404200D10131FF
:103F300000BDC943404200D10131DB43524200D1B0
:103F4000013300F005F8DB43524200D1013300BDDC
:103F5000002923D1002B18D1002A0CD0BC460D4FCC
:103F600038667A6600210023FFE7FFE7FFE77A6FF4
:103F7000386F67467047002801D00748010000B538
:103F800007F046FF0022002300BD02000B000020C6
:103F900000217047000000D0FFFFFFFF002B00D082
:103FA000BFE0130C28D1002AE7D080B4114F396646
:103FB0007A66FFE7FFE730B4040C7B6F396F1B04B0
:103FC00023433B667A66FFE7FFE7FFE7C04684B21C
:103FD0007B6F3D6F1B0423433B667A66FFE7FFE779
:103FE000C04600232C042D0C7A6F386F00196941EC
:103FF000B0BC7047000000D0F0B594460025140E08
:1040000001D112020835140F01D112010435940FA9
:1040100001D192000235D40F01D152000135D40BE9
:104020000134254F7C66254C3C660E0C93B2FFE7AD
:10403000FFE7FFE73C6F6643360C7703BE467343EA
:10404000DF0B5B04C01AB941130C7343DB18C91AA8
:10405000CE086643360CB64493B273431F0F1B0160
:10406000C01AB941130C73431F0B1B05C01AB94189
:10407000860D8F023E436643360C092D24DB520A1F
:104080007243801A7703460A6643360C16235B1B7D
:10409000DE40DF40BF1964466643821B704604352C
:1040A00006330100D940A840C01900D30131A24213
:1040B00006D20023F0BD0000000000D0FFFFFFFF8C
:1040C000121B0130F3D3F1E709277F1BFE40644642
:1040D000A2B27243801A00D20139220C7243130C2F
:1040E0001204821A99410B007046043513370100FF
:1040F000F940A840801900D30131002B02D1A2421F
:104100000AD2F0BD013000D30131121BFAD2013BBB
:10411000F8D1A24200D2F0BD013000D30131121B10
:10412000F7E7F0B51C0C00D080E00CB400251C0AA9
:1041300004D11B02160E3343120208351C0B04D1A6
:104140001B01160F3343120104359C0B04D19B0055
:10415000960F334392000235DC0B02D192185B417B
:1041600001351C00971864410134464F7C66464C6B
:104170003C660E0CFFE7FFE7FFE7C0463C6F664377
:10418000360C7703BE4697B27743C01B00D2013985
:10419000C01B00D201399FB27743C91BC91B170C42
:1041A00077437E04FF0B801BB941CE086643360C73
:1041B0000C2D33DBB644120B1F053A431B0B97B291
:1041C0007743C01B00D201399FB27743C91B170C3C
:1041D00077433E043F0C801BB941860D8F023E435E
:1041E000664329277F1BFE400C3D7746AF40BF1931
:1041F00030BCA2B2ABB272437343801A9941220C15
:104200007243130C1204801A994102000B0001370B
:10421000001BA941F9D2781E0021F0BD0C277F1B9D
:10422000FE4077467F0BAF40FF19E0E700245D1C9E
:1042300007D0144F7D663966FFE7FFE7FFE7FFE72A
:104240003C6F95B29EB265436643401BB141150C6D
:104250001E0C6543664336042F0C3E432D04401B61
:10426000B141994204D202000B0020000021F0BDB0
:1042700001D19042F7D3801A994101349942F2D387
:10428000F6E70000000000D0FFFFFFFF484041407C
:10429000484018B4134B5B68019308BD18B4114B28
:1042A0001B68019308BD94460F4A926F920805D28D
:1042B000624618B40B4BDB68019308BD0A4AF0B59F
:1042C000146E556E576F166F6246FFF7F2FF064A7F
:1042D0001466556657671667F0BD18B4014B9B68A6
:1042E000019308BD60170020000000D0FFB55040CA
:1042F0004240504059404B40594000E0FFB5154FF7
:104300004C00640D03D0BC4204D10C0314D800202F
:10431000090D09055C00640D03D0BC4204D11C03E7
:104320000AD800221B0D1B0501264B4009D44B4027
:1043300003D58B4200D18242FFBD9942FCD190420D
:10434000FFBD0B43DB1803431343F5D0C9434918A2
:10435000FFBD0000FF07000000B5FFF7CFFF01D051
:10436000002000BD012000BD00B5FFF7C7FF804160
:1043700000BDC04600B5FFF7C1FF01D9002000BD58
:10438000012000BD00B5FFF7B1FF01D9002000BD3D
:10439000012000BD00B5FFF7A9FF804100BD01204D
:1043A00040054A00121804D85A00121801D80020FB
:1043B000704701207047002070470000002100284E
:1043C00005D17047C1174840401AFAD0C90713B544
:1043D000064B1B6898470CBC441CA2401005120BEE
:1043E0000349091B09051943114310BD202D002065
:1043F0001F04000010B54C00620D8023D218DB00B2
:10440000D21A5B057E2A10DD9E3A13DACC17090317
:10441000490819435242D140640001341532202A20
:1044200005DAD0400843604310BD002010BD0846A7
:10443000604310BDC80FC018013810BD18B4024B3E
:104440005B6A019308BD00006017002018B4024B9E
:10445000DB6C019308BD00006017002018B4024B0C
:104460001B6D019308BD00006017002010B50148C6
:10447000FEF7A0F84CC00010132370B51D78012D75
:1044800015D010DD1B48FFF777FC1B4C0100802284
:10449000200000F08FFD022D06D01848FFF764FCC5
:1044A000174B186070BD144C164BA364F5E7164B00
:1044B000114C23606360A360E36023616361A361C7
:1044C000E36123626362A362E36223636363A363C2
:1044D000E36323646364A364E36423656365A365A2
:1044E000E36523666366A366E36623676367A36782
:1044F000E367D9E753440000601700204C33000005
:10450000202D0020A54E00106D440010F0B5464649
:10451000D6464F461D00924BC0B598464E00760DCC
:10452000140088B0B044002E4ED08E4B9E424BD02B
:1045300000228D4FBF1B3B0580185941FFF78EFFAE
:104540008A4A8B4BFFF7AFFE00228A4B0090019105
:10455000FFF720FF00280AD000980199864B00221F
:10456000FFF797FE854B009001919846B044434673
:10457000002B1BD0002220002900814BFFF702FFF7
:1045800000280DD10022200029007E4BFFF7F2FE0B
:1045900000283BD043460020002B05DB00210DE026
:1045A00043460020002BF9DB774907E02200009802
:1045B00001992B00FFF791FE00F086FA08B0E0BCED
:1045C000BA46B146A846F0BDFFF748FF674A684BB8
:1045D000FFF769FE0022674B00900191FFF7DAFEBA
:1045E0000028C7D0009801990022634BFFF751FEC5
:1045F000624B009001919846002220002900604BF8
:10460000B044FFF7BFFE0028BCD0C9E72000290056
:1046100000F00CFA0B00020006000F002000290039
:10462000FFF737FE1A220290039100F0D9F900F04B
:10463000FDF94B0004000D005B0D09D0494A93427F
:1046400006D000241A2B00DC7FE0504D24184D4189
:1046500039003000FFF7CEFE82464046FFF7B2FE3B
:1046600022002B0006000F00FFF737FE0490059193
:1046700000F0DCF902000B000498059906920793FC
:10468000FFF707FE22002B00049005910298039982
:10469000FFF7FFFD32003B00FFF71FFE049A059B6A
:1046A000FFF7FCFD049005915046FFF78BFE009A42
:1046B000019BFFF712FE04000D0000F0B7F90200A5
:1046C0000B0006000F0020002900FFF7E2FD049A0E
:1046D000059BFFF7E3FD009A019B04000D00029883
:1046E0000399FFF7FAFD2B002200FFF7D7FD00F03A
:1046F000EBF94B005B0D04000D009946002B00D137
:104700005CE7184B994500D158E7514643464B4367
:10471000069807999A46FFF76DFE390082443000EB
:10472000FFF768FE4B465044C318002B09DD184ABA
:1047300093420DDD144AEB0FDB071A4300201100F2
:104740003CE7EB0F0020D90738E7C90FCD077FE71B
:104750000022030512196B41100019002EE7C04614
:1047600001FCFFFFFF070000FF030000EF39FAFE26
:10477000422EE63F0000E03F0000F03F02FCFFFF5A
:104780000000B0400000B0C00000F07F000060FEFC
:10479000FE070000F0B54646D6464F460400C0B5B9
:1047A0000D001600012A56D0D70FBF187F10012F19
:1047B00047D00323D21713409B199B109846012B17
:1047C00035D0072313409B19DB109946012B27D0C6
:1047D0000F2313409B191B119A46012B15D0330050
:1047E000203B1F2B06D90022FFF7D4FF02000B004D
:1047F000FFF773FD0B000200FFF76FFD5346DB0769
:1048000003D522002B00FFF768FD0B000200FFF725
:1048100064FD4B46DB0703D522002B00FFF75DFD4F
:104820000B000200FFF759FD4346DB0718D40200D6
:104830000B00FFF752FDFF0703D522002B00FFF707
:104840004CFD02000B00FFF748FDF60703D52200E0
:104850002B00FFF742FDE0BCBA46B146A846F0BDCA
:1048600022002B00FFF739FDE1E7C046F0B5C64650
:1048700000B582B016001F0004000D0000900191E9
:10488000002927DA7B004F4A5B0D9B181CD4342289
:10489000D31A19D41800203845D4353A84468240BA
:1048A000012149429940300088430100380090437B
:1048B00002000A4308D1342B49D06246002A3CDB6F
:1048C0003B00D340DB0742D480231B06EB181D00BE
:1048D0000094019530003900FFF78CFD2B0D8046C8
:1048E0000200002B42D038498B423FD02903090BEC
:1048F00021433BD1354988425CDB802109018A4252
:1049000056DA30498C4663445A43314BD318002B56
:1049100052DD304900208B4251DC110500222E4B24
:10492000801859411EE00122202152428446100085
:10493000C91AC8409A400243B2E720223900D21A6D
:1049400091400A003100D9400B001343BAE780239D
:104950001B062000E91832003B008024FFF786FF89
:104960002406091902B080BCB846F0BD4346002BAE
:1049700014D02033402B14D84346002B09DA009A78
:10498000019B00201449FFF78EFC434600900191E3
:104990005A4200980199FFF7FDFEE3E700200E4917
:1049A000E0E73200009801993B00FFF7AFFDD9E73F
:1049B000054AA6E70A00A0E700200021D2E7074940
:1049C000D0E7C04601FCFFFFFF07000000F8FFFF33
:1049D000FF030000FE0700000000F03F0000F07F32
:1049E0004B0070B55B0D04000D00002B0ED00C4E7B
:1049F000B3420BD0D318002B09DD0A498B420ADDE4
:104A0000094AEB0FDB071A430020110070BDCB0FE2
:104A10000020D907FAE70020110500196941F5E7E0
:104A2000FF070000FE0700000000F07F244A4B0053
:104A300094465B0D6344F0B504000D005A1C21DB65
:104A40005A1C35D0342B1CDA3326F61A3700203F97
:104A50001CD40121B9400B000121B1400A001219F8
:104A60006B41002F1EDB0224BC4021000224B44015
:104A700020001600002544428D4126402B40300086
:104A80001900F0BDCB0F0020D907FAE72021012043
:104A9000891BC8400121B14003000A0012196B4173
:104AA000002FE0DA20240225A41BE5402900DDE7E1
:104AB000CB0F044ADB071A4300201100E1E7C04690
:104AC00001FCFFFF0000F03F264B70B50A0D04000B
:104AD0000D009A423AD00022234BFFF74BFC0028EE
:104AE00034D1002220002900204BFFF74BFC002886
:104AF00002D000201E4970BD20002900FFF796FF5C
:104B0000FFF778FC0600FFF75DFC02000B002000B9
:104B10002900FFF7BEFB174B174AFFF7DEFBFFF735
:104B200095FC4B0004000D005B0DE4D0134A93424A
:104B3000E1D0F318002B0CDD114A93420DDDCB0FB1
:104B40000B4ADB071A4300201100D4E700200021A4
:104B5000D1E7CB0F0020D907CDE7002031050019A0
:104B60006941C8E7FF0F00000000B0C00000B0407E
:104B70000000F07F422EE63FEF39FAFEFF0700000B
:104B8000FE070000F0B5D6464F464646C0B51600B3
:104B90001F000022BB4B04000D00FFF7DDFB2200CD
:104BA0002B0000283CD13B0D98465B055A0D9146E1
:104BB0000022002B3CD020002900B34BFFF7CCFB98
:104BC000002837D0B14B994531D0984500D16CE0E1
:104BD000AF4B98455DD0AC494B46AE4A9A1800D5CC
:104BE000F1E034239B1A9C46002B11DD180020387D
:104BF00000D502E101225242824001206346404238
:104C000098403300834338009043034300D0DAE0F8
:104C100032003B0020002900FFF728FE02000B00B5
:104C200010001900E0BCBA46B146A846F0BD00220B
:104C3000944BF5E72A0D53052900580D002B2BD175
:104C4000944B4B44002F33DB002B22DB3421C91A59
:104C50001FD40800203855D401235B42844683408A
:104C6000012252428A4030009043020038009843AB
:104C7000030013430DD122002B003429D0D063460A
:104C8000002B00DAABE03E00DE4022002B00F607EE
:104C9000C6D400220023C3E77C4B9A469A4245D1F2
:104CA0000022002FF6DB7C4BBAE700227A4BB7E7F5
:104CB0007A4A9145F9DD3422D31AF6D41800203807
:104CC0002AD4353A84468240012149429940300035
:104CD000884301003800904302000A43E5D1342B99
:104CE00007D06246002A00DA80E03E00D640F60790
:104CF000DBD5694AEB0FDB071A43110000200B00DC
:104D000002008DE7012320225B4284461800521ADC
:104D1000D0408B400343A3E7012220215242844626
:104D20001000C91AC8409A400243CDE7584B9A4236
:104D300000D094E0574B4B44002F1FDB002BB4DB1B
:104D40003422D31AB1D4180020386AD4353A8240BC
:104D500001214942994034008C4321003C00944396
:104D600022000A43A1D1342B72D0002869DB3E0017
:104D7000C6400022F60796D5494B51E7474A914570
:104D800087DD3422D31A00D583E7180020383FD4BA
:104D9000353A824001214942994034008C43210038
:104DA0003C00944322000A4300D072E7342B52D0D7
:104DB00000283FDB3E00C6400022F60700D469E72A
:104DC00080231B062CE7002900DA6EE732003B0047
:104DD00020002900FFF79AFB02000B0020E72023A8
:104DE0003A005B1A9A40CE4016434EE72022390023
:104DF000D21A9140DE400E4379E701222020524230
:104E0000C01A1300C340180063469A400243F4E6F8
:104E10000122202152421400C91ACC409A40224358
:104E2000B8E70122202152421400C91ACC409A400E
:104E300022438DE720223900D21A9140DE400E43F2
:104E4000BAE720223900D21A9140DE400E4390E7A3
:104E50000022134BE4E6802300221B06E0E6D04547
:104E600009D0984500D0B7E60C4B0022984200DDEF
:104E700010E7094BD4E6094B0022984200DD12E707
:104E80000023CDE60000F03F0000F0BFFF07000068
:104E9000FF0F000001FCFFFF0000F07FFE03000099
:104EA0000000F0FF07B5604601880A0A0230DF2AD9
:104EB000FAD1C9B2820804D30288408800041043A2
:104EC00000E00068014A5050039007BD60170020C1
:104ED00051434343C9188C46110C83B24B4310B461
:104EE000040C614392B280B2504362431C041B0C19
:104EF000001910BC59411304120CC01851416144EF
:104F00007047000010B50148FDF754FBFCC10010CC
:104F1000132310B510481C78FEF72EFF0100012C5A
:104F20000AD003DD80220D4800F044F80C48FEF75B
:104F30001BFF0C4B186010BD084C5422200000F0E1
:104F400039F82200084980322368002B00D1216003
:104F500004349442F8D1E9E753460000242D0020A0
:104F60004C330000202D0020054F001010B5040028
:104F700006F0FEF9002804D0034B04199C4200D827
:104F800010BD0248FDF716FB0000042064C00010AD
:104F900010B506F0F7F910BD01480421014B184780
:104FA00010100020893D0010014B1B6818470000BD
:104FB00010100020014B5B68184700001010002003
:104FC000F0B5C64600B5437D07000D001600002B66
:104FD00038D0002A2EDD00216A1E90466A5C037DCF
:104FE0004C1C00200A2A0CD0A64216D043461B5D5A
:104FF00021000D3B5A4253416A5CDBB24C1C0A2A29
:10500000F2D1002BF0D1884217DB022110483B6817
:105010009847A64207D02000E8E7864203DD311A10
:105020003B6828189847AD19013D2B780D3B5A4233
:1050300053413B7580BCB846F0BD091A3B6828183F
:105040009847E2E70368110028009847F2E7C04656
:1050500028C70010F0B5C6460B6806000C0000B566
:10506000802B06D05A1C2260E418267180BCB846FA
:10507000F0BD0F4B1D68002D16D00B1D98460D4F2F
:1050800002E02D69002D0FD02B68002BF9D03B6872
:10509000002B01D0AB42F4D1280041462268FFF733
:1050A0008FFF2D69002DEFD101220023DBE7C046E1
:1050B000C0280020CC280020F0B5CE46474680B559
:1050C00083B06B460600DD1D2870FCF701FD002350
:1050D0001A4A12184B41802109068B4202D3012241
:1050E000174B524217490800884606F0C9FE164B76
:1050F00081461C68002C14D0144F02E02469002C57
:105100000FD02368002BF9D03B68002B01D0A342BD
:10511000F4D1200001222900FFF752FF2469002C5E
:10512000EFD14B46002B05D1300003B0C0BCB946CF
:10513000B046F0BD404606F063FEF5E740420F0082
:10514000FFFFFF7FC8150020C0280020CC280020CA
:10515000F0B5DE4657464E464546E0B585B00700F9
:1051600006F0C8FC0600FCF7B3FC00232B4A12181B
:105170004B41802109068B4202D30122284B524227
:10518000284908008B4606F07BFE274B01901C68DF
:105190009A46002C3BD0254B984602ABDD1D0A23D6
:1051A000994602E02469002C17D02368002BF9D01F
:1051B00043461B68002B01D09C42F3D120003200F3
:1051C0003900FFF7FDFE4B462000012229002B701D
:1051D000FFF7F6FE2469002CE7D1019B002B18D1C4
:1051E00053461C68002C06D06368002B0BD09847F0
:1051F0002469002CF8D1300005B0F0BCBB46B246A3
:10520000A946A046F0BD2469002CEDD1F3E70028A3
:10521000F1D0584606F0F4FDE2E7C04640420F00E8
:10522000FFFFFF7FC8150020C0280020CC280020E9
:105230000A4A1368002B05D10CE01A001B691032D2
:10524000002B07D09842F8D1002902D103691360DE
:10525000016170470029FCD01060FAE7C0280020E7
:10526000F0B5CE46474680B5A3B004000D00FCF76C
:105270002FFC0023294A12184B41802109068B423A
:1052800002D30122264B5242264F380006F0F8FD89
:1052900000230600019322002B00234801A9FEF7FA
:1052A0002DFD019B8046002B14D1204B1C68002C47
:1052B00006D06368002B0BD098472469002CF8D1E6
:1052C000002E25D1404623B0C0BCB946B046F0BD43
:1052D0002469ECE7154B1D689946002D1CD0144C31
:1052E00002E02D69002D0FD02B68002BF9D0236828
:1052F000002B01D0AB42F4D12800019A02A9FFF79C
:105300005FFE2D69002DEFD14B4601951C68CEE75D
:10531000380006F075FDD5E70195D1E740420F0052
:10532000FFFFFF7FC815002055500010C028002047
:10533000CC2800200FB400B583B004A901C90191A5
:10534000FFF78EFF03B008BC04B0184710B500F09B
:10535000D9F910BD7047C0460022014B1A70704742
:105360005C2E00204B790020FF2B0BD18B79002B7A
:1053700008D1CB79012B05D1082A03D9024B8A78B1
:1053800009301A707047C0465C2E0020012070471B
:1053900070B5012901D0012070BD134953791079EE
:1053A00009781B02034300209942F5D15378012B61
:1053B00008D0022BF0D1002064220021FDF700F874
:1053C0000120E9E79478D278050012021443D2054F
:1053D00002D5620A93401D000448FEF7C5FC7F21F8
:1053E00003002140280098475C2E00205542000011
:1053F00001230370004870472CC700104B780A78CF
:105400001B0213438A7810B512041A43CB781B068B
:1054100013439622D200934200D010BD0348FEF7FA
:10542000A3FC0021030008009847C0465542000035
:10543000024B1860024B19607047C046541F002091
:10544000581F002010B5024B1878FBF703FC10BD65
:105450005D2E0020114B70B51A68002A1AD0EFF3A8
:10546000108172B610680028FCD0BFF35F8F002057
:105470000B4A596010701B68BFF35F8F186081F38F
:10548000108800240025074B1878FBF7E3FB290060
:10549000200070BDFA240025A400F4E7F82C0020B9
:1054A0005E2E00205D2E002070B5040000200E004E
:1054B00001F0F0FA002836D0002001F003FB0028AC
:1054C00031D0FCF705FB0023184A12184B4180210C
:1054D00009068B4216D2164D280006F0D1FC002892
:1054E00021D0002001F0D6FA00280FD101200021A0
:1054F000404200F0C9FC03246442280006F080FC0E
:10550000200070BD01220B4B5242E4E7002001F065
:10551000D9FA0028EAD021003200002001F0DEFA9A
:10552000041EEAD1E7E703246442E9E740420F00A2
:10553000282E0020FFFFFF7FF8B5DE46574680B5D6
:1055400005000C00FCF7C4FA0023374A12184B413F
:10555000802109068B4202D30122344B5242344946
:1055600008008A4606F08CFC002803D1C0BCBB466C
:10557000B246F8BD002001F08DFA00284AD000267E
:10558000002C43DD2B4B9B4614E0A919002001F0B1
:1055900019FB070001200021404200F075FC0020AB
:1055A00001F0D4FAFCF794FA224BF619186059600E
:1055B000B4422BDD002001F01FFBA71B0200B84204
:1055C00000DD3A00002AE0D101200021404200F035
:1055D0005BFC002001F0BAFA002001F05BFA002821
:1055E00014D0002001F008FB0028E1D1FCF770FA8C
:1055F0005B460F001A685B68002184460E4812184B
:105600004B419F4202D8D3D19445D1D9504606F0A0
:10561000F7FBABE700200021064B186059605046AD
:1056200006F0EEFBA2E7C04640420F00FFFFFF7FFF
:10563000282E00205817002020A1070010B5244C68
:1056400084B00021200006F003FC00281CD1214B6F
:105650001A68002A16D0EFF3108172B6106800287D
:10566000FCD0BFF35F8F01241B48596002781B6890
:10567000D2B20470BFF35F8F0020186081F31088EE
:10568000002A0AD004B010BD01200021404200F0E1
:10569000FBFB200006F0B4FBF4E7FBF7BBFF0400C4
:1056A000FCF716FAFA220023920012184B418021CF
:1056B00009068B4202D30122084B5242012102917A
:1056C00000210191064920000091FBF7A7FFD9E7CF
:1056D000282E0020F82C00205E2E0020FFFFFF7FE8
:1056E00055540010054B10B51868002804D0044B21
:1056F0000022196801F03EF810BDC046541F00207A
:10570000581F0020D02310B51B0684B01C68FBF77F
:1057100081FFFCF779F8A04202D0002004B010BD50
:10572000274B1B7801F04AFC2648FBF777FD012048
:10573000FBF746FDFF23244C244920701840FBF75B
:10574000AFFA20780121FBF773FA0520FBF78AFAFC
:10575000002827D1FBF75EFF0400FCF7B9F9FA2215
:105760000023920012184B41802109068B4202D37C
:105770000122174B5242012102910021019115494A
:1057800020000091FBF74AFF082204000021124884
:10579000FFF70AFC002CC0DB10480121FFF748FD91
:1057A0000120BBE700220E490520FBF7A3FAFBF717
:1057B00021FA094B01001800FBF75AFDECE7C0463F
:1057C000343E0410282E00205D2E00203D5600108F
:1057D000FFFFFF7F55540010F82C00202010002000
:1057E0004554001000487047BCC70010004870477F
:1057F00068C7001010B5040017480378002B20D0AC
:10580000002C06D1154B16484380063BFF3B038016
:1058100010BD052C19D8134BA400E05812490123E0
:10582000013804E001330A800231142B0FD0C25C2E
:10583000002AF7D1C022DBB25B0092000848134374
:10584000E5E7112100F022F8DAE70020E0E7CA23BB
:1058500003489B00DBE7C046402E002009040000FF
:105860009828002050C700109A28002010B5024840
:1058700000F0E0F810BDC046182D002010B5082239
:105880000149FFF797FB10BD182D002030B54B1EC6
:10589000012900D1A7E0664A11780D092C003034A7
:1058A0009F2900D9A2E00470012B00D1BEE00F2196
:1058B000147821400C003034092900D998E0447054
:1058C000022B00D1B2E054782509290030319F2CF9
:1058D00000D990E08170032B00D1A7E00F21214077
:1058E0000C003034092900D987E0C470042B00D1A2
:1058F0009CE094782509290030319F2C00D97FE065
:105900000171052B00D191E00F2121400C003034B2
:10591000092900D976E04471062B00D186E0D478BD
:105920002509290030319F2C00D96EE08171072BA9
:1059300000D17BE00F2121400C003034092966D8CA
:10594000C471082B00D171E0147925092900303188
:105950009F2C5FD80172092B68D00F2121400C00C9
:105960003034092958D844720A2B5FD0547925095C
:10597000290030319F2C52D881720B2B56D00F2129
:1059800021400C00303409294BD8C4720C2B4DD067
:1059900094792509290030319F2C00D907310173F2
:1059A0000D2B43D00F2121400C003034092901D99F
:1059B00037310C0044730E2B38D0D1790C092200FA
:1059C00030329F2900D9073282730F2B2ED00F223D
:1059D0000A4011003731092A01D830321100C17351
:1059E000102B23D010300023037030BD07345AE74A
:1059F00037310C0063E707316CE737310C0074E78F
:105A000007317DE737310C0085E707318EE7373105
:105A10000C0095E707319DE737310C00A3E707310C
:105A2000AAE737310C00C4720C2BB1D1C018DAE7E9
:105A3000182D002010B588B004000D220021684602
:105A4000FFF7B2FA0D22002104A8FFF7ADFA4B23AD
:105A50006A466846137004A90D2206F0C9F915219B
:105A6000082220006944FFF7A5FA08B010BDC0461F
:105A700010B501210520FBF7DBF810BD10B50022A1
:105A80000021024800F058F910BDC046F42800205B
:105A90008022024B5202DA647047C0460020115047
:105AA000F0B5C64600B5060000F020F90C231B4DEA
:105AB000FF22AB6705201A49FBF71CF940239846E3
:105AC000184C402200212000FFF76EFA43460127C0
:105AD000238321210023144A6770A260136063545A
